:020000040800F2
:10000000000002209D020008A3020008A7020008C9
:10001000190300081D030008650300080000000024
:10002000000000000000000000000000AD03000818
:10003000B103000800000000B5030008B90800087B
:1000400071070008710700087107000871070008B0
:1000500071070008710700087107000871070008A0
:100060007107000871070008710700087107000890
:100070007107000871070008710700087107000880
:100080007107000871070008710700087107000870
:100090007107000871070008710700087107000860
:1000A0007107000871070008710700087107000850
:1000B0007107000871070008710700087107000840
:1000C0007107000871070008710700087107000830
:1000D0007107000871070008710700087107000820
:1000E0007107000871070008710700087107000810
:1000F0007107000871070008710700087107000800
:1001000071070008710700087107000871070008EF
:1001100071070008710700087107000871070008DF
:1001200071070008710700087107000871070008CF
:1001300071070008710700087107000871070008BF
:1001400071070008710700087107000871070008AF
:10015000710700087107000871070008710700089F
:10016000710700087107000871070008710700088F
:1001700071070008710700087107000800000000FF
:10018000710700087107000800B583B000F056FA47
:10019000304B314A1360314A1360314B314A324996
:1001A0008B4204D21168196004330432F7E72A4BFA
:1001B0001A682E4B9A4200D0FEE7284B1A682C4B47
:1001C0009A42F9D1234B2B4A13602B4A13602B4BD5
:1001D00002E000221A600433294A9342F9D3254BE6
:1001E0001B6813B9244B1B6803B1FEE700F032FA19
:1001F000694601A800F0BEF9224C234BE41AA41072
:100200000025AC4214DC214C214BE41AA41000253B
:10021000AC4213DC0099019800F052FB05461D4CDE
:100220001D4BE41AA410002C0EDC284600F07EF9C9
:10023000154B53F8253098470135E2E7144B53F836
:10024000253098470135E3E7013C134B53F8243040
:100250009847E8E7BABADECA000000207C00002018
:1002600000000020C81300088000002078563412D7
:1002700032547698800000201C010020800000206D
:1002800020010020F0030008F0030008F00300083C
:10029000F0030008F0030008F003000808B5FFF7BA
:1002A00073FF00BEFEE71EF0040F0CBFEFF30880E3
:1002B000EFF309807146414A10472DE9F04182B0C1
:1002C00004468846124B5E6B9F6B9D6A1B6B13F056
:1002D000020F03D00E4BDB6A002B0CDB0D4800F045
:1002E00051F9CDF800803B4632462946204600F0C1
:1002F000B5F900BEFEE74BF6AB6100F029FA002825
:10030000ECD0034B4FF00042DA6202B0BDE8F0815E
:1003100000ED00E02013000800BEFEE71EF0040F11
:100320000CBFEFF30880EFF309807146244A1047B1
:100330002DE9F04182B004468846084B5E6B9F6B06
:100340009D6A074800F01EF9CDF800803B46324612
:100350002946204600F082F900BEFEE700ED00E0ED
:10036000301300081EF0040F0CBFEFF30880EFF30A
:1003700009807146134A10472DE9F04182B00446C6
:100380008846084B5E6B9F6B9D6A074800F0FAF841
:10039000CDF800803B4632462946204600F05EF903
:1003A00000BEFEE700ED00E03C13000800BEFEE7E3
:1003B00000BEFEE700BEFEE770470000BB0200087B
:0803C000310300087903000875
:1003C800C81300080000002080000020C81300089F
:1003D8000000001000000010800000202001002014
:0803E8000000001000000010ED
:1003F0007047000010B504460E4B18784FF47A731E
:10040000B3FBF0F30C4A1068B0FBF3F000F078F89F
:1004100068B90F2C01D901200AE0002221464FF0D3
:10042000FF3000F039F8054B1C60002000E001208F
:1004300010BD00BF040000201400002008000020B0
:1004400008B50B4B1A6842F400721A601A6842F43D
:1004500080621A601A6842F480721A60032000F009
:1004600009F80020FFF7C6FFFFF7C2FF002008BD14
:10047000003C0240074AD36823F4E0631B041B0CD2
:10048000000200F4E060184340F0BF6040F4003028
:10049000D060704700ED00E030B4174BDB68C3F369
:1004A0000223C3F10704042C28BF04241D1D062DBC
:1004B00018D9033B4FF0FF3505FA04F421EA040193
:1004C000994005FA03F322EA0303194300280BDBE2
:1004D0000901C9B200F1604000F5614080F80013E5
:1004E00030BC70470023E5E700F00F000901C9B2F6
:1004F000024B1954F4E700BF00ED00E014ED00E0FA
:100500000138B0F1807F0AD2064B5860064AF021CC
:1005100082F823100020986007221A60704701209B
:10052000704700BF10E000E000ED00E0FEE70000D3
:1005300008B503460C4A12685AB10B4A10680333D7
:1005400023F003030344094A934206D8064A136082
:1005500008BD054A06491160EFE700F0D1F90C2308
:1005600003604FF0FF30F3E78400002000FC01201F
:100570002001002001230360014B0B60704700BF86
:100580000C0000200FB400B583B004AB53F8042B6B
:1005900001938021064800F0F9F9002803DD0146A7
:1005A000034800F047F803B05DF804EB04B070476F
:1005B0008C00002010B5044600F0B3F90146204637
:1005C00000F038F80121024800F034F810BD00BFF7
:1005D0009C1200082DE9F04385B004460F464356AF
:1005E0000BB10E461EE0042528462146ABBE04464C
:1005F000384605B0BDE8F08314F9011B04AA1A447B
:1006000002F8101C0133AB42F6D304AA13440022B3
:1006100003F8102C4FF00408E94640464946ABBEAB
:100620008046761B002EE3D03546102E28BF1025BD
:100630000023E8E708B5FFF7CDFF08BD08B500F0D7
:1006400099F8024A024B9A6008BD00BF00000008FA
:1006500000ED00E008B500F0ADF808BDF8B50446BF
:100660000D4617461E462748FFF78CFF216826488F
:10067000FFF788FF61682548FFF784FFA1682448D9
:10068000FFF780FFE1682348FFF77CFF21692248DC
:10069000FFF778FF61692148FFF774FFA1692048DF
:1006A000FFF770FFE1691F48FFF76CFF1E48FFF777
:1006B00069FF29461D48FFF765FF1D4CE16A1D488B
:1006C000FFF760FF216B1C48FFF75CFFE16B1B48E5
:1006D000FFF758FF15F0800F0AD115F4004F0CD129
:1006E0001748FFF74FFF06991648FFF74BFFF8BD75
:1006F00039461548FFF746FFEFE731461348FFF745
:1007000041FFEDE70412000814120008241200084B
:100710003412000844120008541200086412000841
:10072000741200088412000894120008A012000835
:1007300000ED00E0B0120008C0120008D01200085E
:100740000013000808130008E0120008F012000867
:1007500083691A888A4201D0002070470268033AF0
:10076000012A03D8023383610120704700207047BB
:10077000FEE700000C4B1A6842F001021A600021EB
:1007800099601A6822F0847222F480321A60074A53
:100790005A601A6822F480221A60D960044B4FF024
:1007A00000629A60704700BF003802401030002499
:1007B00000ED00E0224B9B6803F00C03042B14D0E7
:1007C000082B16D01BB11F4B1F4A1A6002E01D4BAD
:1007D0001D4A1A601A4B9B68C3F303131B4AD15C72
:1007E000184A1368CB4013607047164B184A1A60BA
:1007F000F0E7134B5A685B6803F03F0312F4800F75
:1008000013D0134AB2FBF3F20D4B5B68C3F38813AA
:1008100003FB02F30A4A5268C2F30142013252005A
:10082000B3FBF2F3074A1360D4E7074AB2FBF3F2D3
:10083000034B5B68C3F3881303FB02F3EAE700BFD3
:1008400000380240140000200024F4004C1300087B
:1008500040787D010A4B1B680A4AA2FB03239B09CF
:10086000013BB3F1807F09D2074A5360074BF02167
:1008700083F823100023936007231360704700BFA1
:1008800014000020D34D621010E000E000ED00E005
:10089000034B1860024B1B68002BFBD1704700BF55
:1008A00018010020034B1B681BB1024A1368013B6F
:1008B000136070471801002008B5FFF7F3FF08BD6B
:1008C00010B5FFF7BDFD0A48FFF774FE094B196824
:1008D0000948FFF757FEFFF7BDFF00244FF47A7079
:1008E000FFF7D6FF013421460448FFF74BFEF5E73A
:1008F0005C1300081400002070130008881300081F
:10090000014B1868704700BF1800002010B5431E47
:100910000A44914200D110BD11F8014B03F8014F78
:10092000F7E7034613F8012B002AFBD1181A013808
:10093000704730B5141E05469BB0184605DA8B2368
:100940002B604FF0FF301BB030BD4FF40273ADF899
:100950000C3014BF04F1FF332346029305934FF686
:10096000FF7300910491ADF80E3002461E9B69465C
:10097000284600F073F8431CBCBF8B232B60002C6F
:10098000E1D0009B00221A70DDE7000007B500935C
:1009900013460A46014603480068FFF7CAFF03B042
:1009A0005DF804FB180000202DE9F0478E689E4298
:1009B00082460C469046994637D88A8912F4906F41
:1009C00031D0256809696F1A6569022305EB450571
:1009D00095FBF3F509F101033B449D4238BF1D46E9
:1009E000530530D5294600F073FB064650B90C2359
:1009F000CAF80030A38943F04003A3814FF0FF30D1
:100A0000BDE8F0873A462169FFF780FFA38923F408
:100A1000906343F08003A381266165613E44ED1B32
:100A20002660A5604E464E4500D94E4632464146A8
:100A3000206800F0E5FAA3689B1BA36023681E44AE
:100A400026600020DCE72A4600F09CFB06460028D2
:100A5000E2D12169504600F0EDFAC8E72DE9F04FE8
:100A60009DB0804603938B891D060C4616460FD514
:100A70000B696BB9402100F02BFB2060206128B985
:100A80000C23C8F800304FF0FF30C7E0402363610B
:100A90000023099320238DF8293030238DF82A3044
:100AA0004FF0010B37463D4615F8013B0BB1252BA6
:100AB0003ED1B7EB060A0BD053463246214640469C
:100AC000FFF772FF013000F0A480099B53440993A3
:100AD0003B78002B00F09D8000234FF0FF32CDE9E2
:100AE0000523049307938DF853301A932F4605225C
:100AF00017F8011B4F4800F033FA049BD0B9D90610
:100B000044BF20228DF853201A0744BF2B228DF8B2
:100B100053202A782A2A15D0079A2F4600200A2522
:100B2000394611F8013B303B092B4DD9B8B10FE0E4
:100B30002F46B8E73F4A801A0BFA00F0184304909A
:100B40003D46D3E7039A111D12680391002A01DB89
:100B5000079204E0524243F00203079204933B7869
:100B60002E2B0CD17B782A2B33D1039B1A1D1B68AB
:100B70000392002BB8BF4FF0FF33023705932E4D81
:100B800039780322284600F0EBF938B14023401BA6
:100B900003FA00F0049B0343013704933978274894
:100BA0008DF8281006227E1C00F0DAF9002838D0D3
:100BB000234B13BB039B073323F007030833039333
:100BC000099B4B4409936DE705FB023201200F4658
:100BD000A6E700230137059319460A25384610F881
:100BE000012B303A092A03D9002BC8D00591C6E75A
:100BF00005FB012101230746F0E703AB00932246E2
:100C0000104B04A94046AFF30080B0F1FF3F81468E
:100C1000D6D1A3895B063FF536AF09981DB0BDE874
:100C2000F08F03AB00932246064B04A9404600F028
:100C300081F8EAE7941300089A1300089E1300084D
:100C400000000000A90900082DE9F04791461F4661
:100C50008A680B69DDF820809342B8BF1346C9F853
:100C6000003091F8432006460C4612B10133C9F812
:100C700000302368990642BFD9F800300233C9F822
:100C80000030256815F0060507D104F1190AE3685C
:100C9000D9F800209B1AAB4228DC94F84330226834
:100CA000003318BF012392062DD404F143023946C4
:100CB0003046C047013020D02368E568D9F80020CD
:100CC00003F00603042B08BFAD1AA36822690CBF0A
:100CD00025EAE57500259342C4BF9B1AED184FF035
:100CE00000091A344D451AD1002008E0012352466C
:100CF00039463046C047013003D14FF0FF30BDE8E0
:100D0000F0870135C3E7E1185A1C302081F8430011
:100D1000224494F8451082F843100233C5E70123BA
:100D2000224639463046C0470130E6D009F1010974
:100D3000D8E700002DE9F04301F1430C0C46097E91
:100D400085B06E291746064698460C9A00F0B38087
:100D500022D8632936D00AD8002900F0B980582952
:100D600000F0838004F1420584F8421032E06429E7
:100D700001D06929F6D120681368050603F1040142
:100D80002AD51B681160002B03DA2D225B4284F800
:100D900043206F480A2239E0732900F09D8008D86B
:100DA0006F2920D07029DDD1236843F02003236010
:100DB00003E0752917D07829D4D1782384F84530F9
:100DC000644855E01368191D1B68116004F1420561
:100DD00084F8423001238CE01B68116010F0400F52
:100DE00018BF1BB2CFE713682568181D10602806CE
:100DF00001D51B6802E06806FBD51B8854486F29A3
:100E000014BF0A220822002184F843106568A560F7
:100E1000002DC0F29580216821F004012160002B93
:100E20003DD1002D40F08E806546082A0BD1236805
:100E3000DB0708D5236962689A42DEBF302305F8D4
:100E4000013C05F1FF35ACEB05032361CDF80080D3
:100E50003B4603AA21463046FFF7F6FE01304DD14E
:100E60004FF0FF3005B0BDE8F083394884F84510F5
:100E7000136821681D1D1B6815600A060BD5CA077B
:100E800044BF41F0200121601BB9226822F02002FA
:100E900022601022B7E74D0648BF9BB2EFE76546D8
:100EA000B3FBF2F102FB1133C35C05F8013D0B46C5
:100EB0000029F5D1B9E7136825686169181D10602C
:100EC00028061B6801D5196002E06A06FBD5198067
:100ED000002323616546B9E71368191D11601D6879
:100EE00062680021284600F03BF808B1401B6060B2
:100EF00063682361002384F84330A7E723692A4607
:100F000039463046C0470130AAD023689B0713D426
:100F1000E068039B9842B8BF1846A3E701234A46FE
:100F200039463046C04701309AD00135E368039A0C
:100F30009B1AAB42F2DCEBE7002504F11909F5E757
:100F4000002BACD1037884F8423004F142056CE701
:100F5000A5130008B6130008000000000000000000
:100F600001F0FF01102A2BDB10F0070F08D010F85A
:100F7000013B013A8B422DD010F0070F42B3F6D15E
:100F8000F0B441EA012141EA014122F007047FF077
:100F900000070023F0E80256083C85EA010586EACE
:100FA000010685FA47F5A3FA87F586FA47F6A5FA0A
:100FB00087F68EB9EED1F0BC01F0FF0102F0070216
:100FC00032B110F8013B013A83EA010313B1F8D1C1
:100FD0000020704701387047002D06BF35460338A2
:100FE000073815F0010F07D1013015F4807F02BFDB
:100FF000013015F4C03F0130F0BC0138704700BF2C
:10100000884210B501EB020307D8421E99420AD06C
:1010100011F8014B02F8014FF8E78342F5D9811826
:10102000D21AD34200D110BD13F8014D01F8014D81
:10103000F7E7000038B50546002945D051F8043CD3
:101040000C1F002BB8BFE41800F0D2F81F4A136839
:10105000104633B9636014602846BDE8384000F09C
:10106000C8B8A3420CD921686218934204BF1A6819
:101070005B68636004BF521822600460ECE71346AB
:101080005A680AB1A242FAD919685818A0420BD17D
:1010900020680144581882421960DDD110685268F6
:1010A0005A6001441960D7E702D90C232B60D3E7BB
:1010B000206821188A4204BF11685268626004BF28
:1010C000091821605C60C7E738BD00BF0C01002033
:1010D00070B5CD1C25F0030508350C2D38BF0C2547
:1010E000002D064601DBA94203D90C233360002002
:1010F00070BD00F07DF8214A1468214691B9204C5A
:1011000023681BB9304600F063F82060294630465A
:1011100000F05EF8431C24D10C233360304600F00D
:1011200068F8E4E70B685B1B18D40B2B0FD90B6036
:10113000CD50CC18304600F05CF804F10B00231DB4
:1011400020F00700C31AD3D05A42E250D0E78C42B5
:101150004B6816BF636013600C46EBE70C464968AA
:10116000CCE7C41C24F00304A04205D0211A304669
:1011700000F02EF80130CFD02560DBE70C01002015
:1011800010010020F8B5074614460E4621B9114655
:10119000BDE8F840FFF79CBF22B9FFF74BFF25469B
:1011A0002846F8BD00F026F8A0420FD22146384666
:1011B000FFF78EFF05460028F2D031462246FFF7A2
:1011C000A5FB31463846FFF735FFE9E73546E7E747
:1011D00038B5064C0023054608462360FFF7A8F9FA
:1011E000431C02D1236803B12B6038BD14010020D9
:1011F0007047704751F8043C181F002BBCBF0B58B8
:10120000C0187047537461636B206672616D653AF4
:101210000A000000205230203D2020253038580A96
:1012200000000000205231203D2020253038580A8F
:1012300000000000205232203D2020253038580A7E
:1012400000000000205233203D2020253038580A6D
:101250000000000020523132203D20253038580A4D
:1012600000000000204C52203D2020253038580A34
:1012700000000000205043203D2020253038580A2F
:101280000000000020505352203D20253038580ADD
:10129000000000004653522F4641523A0A00000017
:1012A0002043465352203D2020253038580A000064
:1012B0002048465352203D2020253038580A00004F
:1012C0002044465352203D2020253038580A000043
:1012D0002041465352203D2020253038580A000036
:1012E000204D4D464152203D20253038580A0000FF
:1012F0002042464152203D2020253038580A000027
:101300004D6973630A000000204C522F4558435F1B
:1013100052455455524E3D20253038580A000000A1
:101320005B486172644661756C745D0A0000000080
:101330005B4275734661756C745D0A005B55736141
:1013400067654661756C745D0A000000000000006E
:1013500000000000010203040607080948656C6CE0
:101360006F2041524D20576F726C642100000000C5
:1013700053797374656D20636C6F636B3A202575C8
:1013800020487A0A000000005365636F6E642025D0
:10139000640A0000232D302B2000686C4C00656629
:1013A00067454647003031323334353637383941B6
:1013B00042434445460030313233343536373839CC
:0713C00061626364656600D1
:1013C8007856341201FFFFFF10000000880000204B
:1013D800000000000024F4001C00002000000000B1
:1013E80000000000000000000000000000000000F5
:1013F80000000000000000000000000000000000E5
:1014080000000000000000000000000000000000D4
:1014180000000000000000000000000000000000C4
:1014280000000000000000000000000000000000B4
:101438000000000000000000000000003254769810
:040000050800018965
:00000001FF
